{
  "_format": "hh-sol-artifact-1",
  "contractName": "MiniFaucet",
  "sourceName": "contracts/MiniFaucet.sol",
  "abi": [
    {
      "inputs": [
        {
          "internalType": "address",
          "name": "_to",
          "type": "address"
        }
      ],
      "name": "claim",
      "outputs": [],
      "stateMutability": "payable",
      "type": "function"
    },
    {
      "inputs": [],
      "name": "deposit",
      "outputs": [],
      "stateMutability": "payable",
      "type": "function"
    },
    {
      "inputs": [],
      "name": "faucetBalance",
      "outputs": [
        {
          "internalType": "uint256",
          "name": "",
          "type": "uint256"
        }
      ],
      "stateMutability": "view",
      "type": "function"
    },
    {
      "inputs": [
        {
          "internalType": "address",
          "name": "recipient",
          "type": "address"
        }
      ],
      "name": "getBalance",
      "outputs": [
        {
          "internalType": "uint256",
          "name": "",
          "type": "uint256"
        }
      ],
      "stateMutability": "view",
      "type": "function"
    },
    {
      "inputs": [
        {
          "internalType": "address",
          "name": "claimer",
          "type": "address"
        }
      ],
      "name": "list_of_claimers",
      "outputs": [
        {
          "internalType": "uint256",
          "name": "next_claim_time",
          "type": "uint256"
        }
      ],
      "stateMutability": "view",
      "type": "function"
    },
    {
      "inputs": [
        {
          "internalType": "address",
          "name": "addy",
          "type": "address"
        }
      ],
      "name": "nextClaimTime",
      "outputs": [
        {
          "internalType": "uint256",
          "name": "",
          "type": "uint256"
        }
      ],
      "stateMutability": "view",
      "type": "function"
    },
    {
      "stateMutability": "payable",
      "type": "receive"
    }
  ],
  "bytecode": "0x6080604052348015600e575f5ffd5b5061072f8061001c5f395ff3fe608060405260043610610058575f3560e01c80631720f5d2146100635780631e83409a1461008d57806370f23da7146100a9578063a80881b8146100e5578063d0e30db014610121578063f8b2cb4f1461012b5761005f565b3661005f57005b5f5ffd5b34801561006e575f5ffd5b50610077610167565b6040516100849190610448565b60405180910390f35b6100a760048036038101906100a291906104bf565b61016e565b005b3480156100b4575f5ffd5b506100cf60048036038101906100ca91906104bf565b610337565b6040516100dc9190610448565b60405180910390f35b3480156100f0575f5ffd5b5061010b600480360381019061010691906104bf565b6103fa565b6040516101189190610448565b60405180910390f35b61012961040e565b005b348015610136575f5ffd5b50610151600480360381019061014c91906104bf565b610410565b60405161015e9190610448565b60405180910390f35b5f47905090565b5f5f5f8373ffffffffffffffffffffffffffffffffffffffff1673ffffffffffffffffffffffffffffffffffffffff1681526020019081526020015f205490505f5f5f8473ffffffffffffffffffffffffffffffffffffffff1673ffffffffffffffffffffffffffffffffffffffff1681526020019081526020015f20541461023457804211610233576040517f08c379a000000000000000000000000000000000000000000000000000000000815260040161022a9061056a565b60405180910390fd5b5b5f8273ffffffffffffffffffffffffffffffffffffffff1666071afd498d0000604051610260906105b5565b5f6040518083038185875af1925050503d805f811461029a576040519150601f19603f3d011682016040523d82523d5f602084013e61029f565b606091505b50509050806102e3576040517f08c379a00000000000000000000000000000000000000000000000000000000081526004016102da90610613565b60405180910390fd5b62015180426102f2919061065e565b5f5f8573ffffffffffffffffffffffffffffffffffffffff1673ffffffffffffffffffffffffffffffffffffffff1681526020019081526020015f2081905550505050565b5f5f5f5f8473ffffffffffffffffffffffffffffffffffffffff1673ffffffffffffffffffffffffffffffffffffffff1681526020019081526020015f2054036103b6576040517f08c379a00000000000000000000000000000000000000000000000000000000081526004016103ad906106db565b60405180910390fd5b5f5f8373ffffffffffffffffffffffffffffffffffffffff1673ffffffffffffffffffffffffffffffffffffffff1681526020019081526020015f20549050919050565b5f602052805f5260405f205f915090505481565b565b5f8173ffffffffffffffffffffffffffffffffffffffff16319050919050565b5f819050919050565b61044281610430565b82525050565b5f60208201905061045b5f830184610439565b92915050565b5f5ffd5b5f73ffffffffffffffffffffffffffffffffffffffff82169050919050565b5f61048e82610465565b9050919050565b61049e81610484565b81146104a8575f5ffd5b50565b5f813590506104b981610495565b92915050565b5f602082840312156104d4576104d3610461565b5b5f6104e1848285016104ab565b91505092915050565b5f82825260208201905092915050565b7f796f752063616e206f6e6c7920636c61696d206f6e63652065766572792032345f8201527f6872730000000000000000000000000000000000000000000000000000000000602082015250565b5f6105546023836104ea565b915061055f826104fa565b604082019050919050565b5f6020820190508181035f83015261058181610548565b9050919050565b5f81905092915050565b50565b5f6105a05f83610588565b91506105ab82610592565b5f82019050919050565b5f6105bf82610595565b9150819050919050565b7f4661696c656420746f2073656e642045746865720000000000000000000000005f82015250565b5f6105fd6014836104ea565b9150610608826105c9565b602082019050919050565b5f6020820190508181035f83015261062a816105f1565b9050919050565b7f4e487b71000000000000000000000000000000000000000000000000000000005f52601160045260245ffd5b5f61066882610430565b915061067383610430565b925082820190508082111561068b5761068a610631565b5b92915050565b7f74727920636c61696d696e6720796f757220666972737420746f6b656e0000005f82015250565b5f6106c5601d836104ea565b91506106d082610691565b602082019050919050565b5f6020820190508181035f8301526106f2816106b9565b905091905056fea264697066735822122039a20dc3db44220a4a3dde922c3dc066a7575deeabbb91c7095ce18473c043c964736f6c634300081c0033",
  "linkReferences": {},
  "deployedLinkReferences": {}
}